:020000020000FC
:0200000045C0F9
:0800040058D0189569D0189539
:10008C000FEF0DBF00E10EBF0FEF07BB00E008BB89
:10009C0000E001BB0FEF02BB0AE000936A0003E033
:1000AC0009BF789400EF08BBFDCF0F931F930FB7D8
:1000BC000F9300E908BB14E61ED000ED08BB14E654
:1000CC001AD000EF08BB0F910FBF1F910F9108952D
:1000DC000F931F930FB70F9300E908BB14E60BD0D7
:1000EC0000EB08BB14E607D000EF08BB0F910FBF65
:1000FC001F910F9108951F932F933F9330EE2DEE88
:10010C002A95F1F73A95D9F71A95C1F70FEF08BF71
:08011C003F912F911F910895FE
:00000001FF
