:020000020000FC
:0200000045C0F9
:100004007FD0189571D018955DD0189564D0189547
:10008C000FEF0DBF00E10EBF0FEF07BB00E008BB89
:10009C0000E001BB0FEF02BB0FEF00936A000FE013
:1000AC0009BF09E703BF05BD0FEF01BF03BD21E188
:1000BC001FEF30E000E608BB7894FFCF10E011BFD3
:1000CC0013BD3FE006B3007F0F6008BB18951FEF10
:1000DC0011BF13BD30E006B3007F006008BB18955C
:1000EC000FEF1017A9F0120F11BF13BD06B3007F4D
:1000FC00032B0A953A9508BB00E0101749F0121B28
:10010C0011BF13BD06B3007F032B0395339508BBBA
:02011C00189534
:00000001FF
